:100000008031022888018431972C003454346534BF
:0A0010006D34703472343A34003459
:10092E0020008731002F21008C16103023008C0000
:10093E008D01C13022009700103021009D008330C0
:10094E009E001D14080021001917991219169915E9
:10095E00191099148C018D0120008C018D0122003B
:10096E00910193012F00911322009A1320009E13E0
:10097E0022009D142F00980199010800F801D82C2F
:10098E007608F7007708F800E02C7608403EF7006E
:10099E007708F800E02C7608F7007708F800E02CCE
:1009AE00E02C7508003A0319C72C013A0319CC2C18
:1009BE00D22C780880388531C0258431F32C730809
:1009CE008400740885000008863160268431013069
:1009DE00F3070030F43DF32C73088400740885008F
:1009EE0000080038031DFC2CFD2CE62CFE2C080004
:1009FE00F430F4008030F300F30B032DF40B032DD1
:100A0E00640020308531C02584315330F300F30B60
:100A1E000E2D20308531C02584315330F300F30B79
:100A2E00162D20308531C02584315330F300F30B61
:100A3E001E2D2C308531C02584315330F300F30B3D
:100A4E00262D0F308531C02584315330F300F30B42
:100A5E002E2D01308531C0258431F930F300372D2C
:100A6E00F30B362D3A2D3B2D080079087804031927
:100A7E00412D422D722DFD010314FD0D502D01301F
:100A8E00F835F90D890B472D0130FC007C08FD0768
:100A9E00502DF91F532D542D462D562D562D7908B8
:100AAE007B02031D5C2D78087A02031C5F2D602DDE
:100ABE00652D7808FA027908FB3B652D0130F93671
:100ACE00F80C890B662D0130FD02031D6F2D702D64
:100ADE00562D722D722D7B08F901F9077A08F8014F
:100AEE00F807792D0800F501F60171087004031955
:100AFE00812D822DB82DF7010314F70D902D0130A5
:100B0E00F035F10D890B872D0130F4007408F707CD
:100B1E00902DF11F932D942D862D962D962D01300F
:100B2E00F535F60D890B972D71087302031DA12D56
:100B3E0070087202031CA42DA52DAB2D7008F202B5
:100B4E007108F33B7514AB2D0130F136F00C890BA7
:100B5E00AC2D0130F702031DB52DB62D962DB82DF7
:100B6E00B82D7608F101F1077508F001F007BF2DD9
:100B7E000800F20022000D1164007208F00004302B
:100B8E00F036890BC72D70080139F100F10E2200E5
:100B9E000D087106EF3971068D007208F0000530F0
:100BAE00F036890BD72D70080139F100F10EF10DD9
:100BBE000D087106DF3971068D007208F0000630DF
:100BCE00F036890BE72D70080139F100F10EF10DA9
:100BDE00F10D0D087106BF3971068D007208F00017
:100BEE000730F036890BF82D70080139F100F10C41
:100BFE00F10C0D0871067F3971068D008D110830CC
:100C0E00F000F00B082E22008D150830F000F00BCE
:100C1E000E2E0830F000F00B122E22000D11640083
:100C2E0072080139F000F00E22000D087006EF393F
:100C3E0070068D00720889360139F000F00EF00D45
:100C4E000D087006DF3970068D007208F000023054
:100C5E00F036890B2F2E70080139F100F10EF10DCF
:100C6E00F10D0D087106BF3971068D007208F00086
:100C7E000330F036890B402E70080139F100F10C6B
:100C8E00F10C0D0871067F3971068D008D1108303B
:100C9E00F000F00B502E22008D150830F000F00BF6
:100CAE00562EF930F0005B2EF00B5A2E5E2E5F2E74
:100CBE000800F20022000D1564007208F0000430E6
:100CCE00F036890B672E70080139F100F10E220003
:100CDE000D087106EF3971068D007208F0000530AF
:100CEE00F036890B772E70080139F100F10EF10DF7
:100CFE000D087106DF3971068D007208F00006309E
:100D0E00F036890B872E70080139F100F10EF10DC6
:100D1E00F10D0D087106BF3971068D007208F000D5
:100D2E000730F036890B982E70080139F100F10C5E
:100D3E00F10C0D0871067F3971068D008D1108308A
:100D4E00F000F00BA82E22008D150830F000F00BED
:100D5E00AE2E0830F000F00BB22E22000D156400FE
:100D6E0072080139F000F00E22000D087006EF39FE
:100D7E0070068D00720889360139F000F00EF00D04
:100D8E000D087006DF3970068D007208F000023013
:100D9E00F036890BCF2E70080139F100F10EF10DEE
:100DAE00F10D0D087106BF3971068D007208F00045
:100DBE000330F036890BE02E70080139F100F10C8A
:100DCE00F10C0D0871067F3971068D008D110830FA
:100DDE00F000F00BF02E22008D150830F000F00B15
:100DEE00F62EF930F000FB2EF00BFA2EFE2EFF2E13
:100DFE0008008431AA248731F9302000A000072F83
:100E0E00A00B062F0A2F0B2F84319A248731F9302D
:100E1E002000A000122FA00B112F152F162F84319A
:100E2E00FF2487310C308531C02587310630F30021
:100E3E008030F400F501F6018431C5248731272F67
:100E4E0021009D142A2F9D182D2F2E2F2A2F2F2F44
:100E5E000A30F0000030F1001C08F301F3071B0804
:100E6E00F201F20785317A25873171082000AE0133
:100E7E00AE077008AD01AD070A30F8000030F9007A
:100E8E0021001C08FB01FB071B08FA01FA0785313C
:100E9E003C25873178082000A0002008A300E83008
:100EAE00F0000330F1002E08F301F3072D08F201D4
:100EBE00F20785317A2587317008303E2000A00078
:100ECE002008A4000A30F8000030F9006430F00069
:100EDE000030F1002E08F301F3072D08F201F2079E
:100EEE0085317A2587317108FB01FB077008FA01FD
:100EFE00FA0785313C2587317808303E2000A00066
:100F0E002008A5000A30F8000030F9000A30F00081
:100F1E000030F1002E08F301F3072D08F201F2075D
:100F2E0085317A2587317108FB01FB077008FA01BC
:100F3E00FA0785313C2587317808303E2000A00025
:100F4E002008A6000A30F8000030F9002E08FB0138
:100F5E00FB072D08FA01FA0785313C258731780801
:100F6E00303E2000A0002008A7002E30A000200850
:100F7E00A8002308303EA0002008A900DF30A00002
:100F8E002008AA004330A0002008AB00AC012408C2
:100F9E00303A031DD32FD42FD82F2030A000200895
:100FAE00A4002508303A031DDD2FDE2FE32F20305D
:100FBE00A0002008A500E32F2430F3000030F40039
:100FCE00F5010314F50DF6018431C5248731023085
:100FDE002000A2004530A100A930A000A00BF52FE3
:100FEE00A10BF52FA20BF52FFC2F272F272F8031CA
:020FFE000228C7
:020000040001F9
:04000E00E4C9FFDC66
:00000001FF
